:1000000000000320D1010000C1470000713E000044
:10001000893E0000793E0000813E000079470000E3
:10002000794700007947000079470000693F0000E8
:10003000C147000079470000B95C0000BD5C0000CA
:10004000C1470000C1470000C1470000C147000090
:10005000C1470000C1470000C1470000C147000080
:10006000C1470000C1470000C1470000C147000070
:10007000C1470000C1470000C1470000C147000060
:10008000C1470000C1470000C1470000C147000050
:10009000C1470000C1470000C1470000C147000040
:1000A000C1470000C1470000C1470000C147000030
:1000B000C1470000C1470000C1470000C147000020
:1000C000C1470000C1470000C1470000C147000010
:1000D000C1470000C1470000C1470000C147000000
:1000E000C1470000C1470000C1470000C1470000F0
:1000F000C1470000C1470000C1470000C1470000E0
:10010000A95D0000BD5D0000D15D0000E55D00005F
:10011000C1470000794D0000C1470000C147000001
:10012000C1470000C1470000C1470000C1470000AF
:10013000C1470000C1470000C1470000C14700009F
:10014000C1470000C1470000C1470000C14700008F
:10015000C1470000C1470000C1470000C14700007F
:10016000C1470000C1470000C1470000C14700006F
:10017000C1470000C1470000C1470000C14700005F
:10018000C147000099370000C1470000C147000087
:10019000C1470000C1470000C1470000C14700003F
:1001A000C1470000C1470000C1470000C14700002F
:1001B000C1470000C1470000C1470000C14700001F
:1001C000C1470000C1470000C1470000C14700000F
:1001D0005C4B4CF2205210B51A804DF628121A8052
:1001E00000BF00BF04F0F0FA574B4FF030621A60C6
:1001F000564A9A60564ADA60564B4FF470021A60BB
:10020000554B564A1A60564B1A78110703D51A787F
:1002100042F008021A70534B5349AA221A70534AEB
:10022000534B8B4204D252F8040F43F8040BF8E707
:10023000504B514900228B4202D243F8042BFAE77B
:100240004E494F4A002352F8230041F8230001335E
:10025000742BF8D14B4B4C4A802103F8011B93427D
:10026000FBD14A4B454A1A60494B8A221A70A3F5C2
:10027000805324225A70A0221A709A799207FCD5D2
:100280009A79D406FCD4434A937903F00C03082BE3
:10029000FAD1414B60221A7002331A78802AFCD1BD
:1002A0003C4B01221A715D225A719A799006FCD555
:1002B0009979384A4906FBD5384B394919600021EC
:1002C000596020231370937903F00C030C2BFAD19F
:1002D000344B354A1A60354A354C136813F4807331
:1002E00003D123604FF4A8531360324B324A1A6093
:1002F00000225A60072243F8042C304AC3F80C2D20
:1003000062B604F0A9FB2368DA0705D52C4804F08F
:100310000FFB2C4B2C4A1A602C4B1B785B0609D523
:10032000284C294B22689A4204D1254804F000FB4E
:100330000023236005F036FF04F04CFA05F0B4FD0D
:10034000FEE700BF0E20054030800440823F0400DD
:100350000100002B88ED00E0002008E0030000858C
:1003600002D0074000E007409410FF1F40720000D9
:100370003007FF1F9810FF1FB884FF1F0002FF1FE8
:100380000000000000E400E064E400E008ED00E0AC
:10039000005006400040064001E007404480044011
:1003A0000000060204800440C010070010D0034083
:1003B00014D0034014E000E01FBF02000000202022
:1003C0003A59185F1CE00340A5C3945A00F0074057
:1003D000FFFFFFFFFFFFFFFFFFFFFFFFFFFFFFFF2D
:1003E000FFFFFFFFFFFFFFFFFFFFFFFFFFFFFFFF1D
:1003F000FFFFFFFFFFFFFFFFFFFFFFFFFFFFFFFF0D
:10040000FFFFFFFFFFFFFFFFFFFFFFFFDEF9FFFF23
:1004100010B5054C237833B9044B13B10448AFF33E
:1004200000800123237010BD9810FF1F0000000002
:100430003C720000084B10B51BB108490848AFF3E7
:1004400000800848036803B910BD074B002BFBD0A0
:10045000BDE81040184700BF000000009C10FF1FBF
:100460003C7200009410FF1F000000000020704745
:10047000027C02F0080202F0FF0332B1C36A406A54
:10048000181A48BF6FF0004070471846704700BF09
:10049000034B186810B103681B681847704700BF0A
:1004A000C47BFF1F42F2CC632DE9F043C150524B95
:1004B000524F1D681C68B7FBF1F044F0A04416468B
:1004C000B7FBF0F791B005F080751C601A46CF1BA2
:1004D0001368DC01FCD5052840F28A800022DFF891
:1004E0001CE11446931CB0FBF3FCBCF1190F02F1A4
:1004F00001020CFB03F3F5D8BEFBF3F3CB1A002B80
:10050000B8BF5B42BB4267DB67D0BCF1050FE9D8DF
:1005100004F1010EB0FBFEF0A0F1050EBEF1140FC8
:100520004DD8B7F5967F4ADC354FE84607F13009DC
:1005300038687968BA68FB68C446ACE80F001037C1
:100540004F45E046F4D138687968BA68B7F80CC00E
:10055000BF7BA8E807000EEB4E0E10AB7344A8F863
:1005600000C088F8027013F8400C13F83F1C13F811
:100570003E3C244A00F00700C90440F4800001F426
:1005800060111B04014303F4E0230B4343F4804355
:1005900043EA046414601368022E14BF23F00803B6
:1005A00043F0080313603DB9134A136823F08053E6
:1005B00013601368DB01FCD411B0BDE8F083002D9B
:1005C000FAD10D4A136823F0805313601368D901E0
:1005D000FCD411B0BDE8F0831446BCF10B0F05D973
:1005E000BCF1120F98BF14461F468EE71F468CE7DA
:1005F0004FF0010E00248DE700400A400024F40073
:100600004C6D000004400A400020704700207047F5
:1006100008207047103002F009B800BF00B583B061
:1006200002AB012203F8011D1030194601F0FEFF54
:1006300003B05DF804FB00BF00B583B00023009356
:100640008022044B04484FF4067103F017FF03B0F7
:100650005DF804FB91160000C010FF1F103001F080
:10066000EFBE00BF00B583B001220DF107011030CD
:1006700001F01EFE01280CBF9DF807004FF0FF306F
:1006800003B05DF804FB00BF103001F0C9BF00BF2C
:10069000104A1149136808681268096802F07F025D
:1006A000C1F3036101320431B2EB410F10D303F007
:1006B0007F03C0F30360053B0130A3EB4000C3B2EE
:1006C000044A106800F07F000130C01AC0B27047C1
:1006D0000023F5E700400A4034400A400349012264
:1006E0000B6802FA00F003430B60704730400A4089
:1006F00038B5044608460D4606F0E2F8236802467F
:1007000029465B68204698470546204605F074FB5D
:10071000284438BD38B505460321314805F0A6F90F
:1007200095F914102F4805F0B7FB0B212E4805F062
:100730009DF9697A2B4805F0AFFB07212B4805F09E
:1007400095F900230A22E97A264805F065FB06217F
:10075000274805F08BF9E979224805F09DFB062131
:10076000244805F083F9297A1E4805F095FB0521F8
:10077000214805F07BF9A9881A4805F08DFB062170
:100780001E4805F073F900230A22697D154805F01B
:1007900043FB05211A4805F069F90023296811482F
:1007A000102205F039FB0921164805F05FF9EB7AB4
:1007B00000247BB12A190023117B0A48102205F07E
:1007C0002BFB0121104805F051F90134EB7AE4B21A
:1007D000A342EFD80348BDE8384005F00DBB00BF89
:1007E0008C6D00009C07FF1F906D00009C6D000049
:1007F000A46D0000AC6D0000B46D0000BC6D000085
:10080000C46D0000CC6D0000C86D0000F8B5434D0C
:100810002B7803B3012B1DD1414E374605E04148EB
:1008200003F0FCFC044600283FD000213E4803F0C2
:10083000F5FC002104460028F1D123213B4805F0B6
:1008400015F93B4805F0D8FA3A4801F0C1FC0028F8
:1008500040D02C70F8BD1F21374805F007F9344807
:1008600005F0CAFA0021354803F0D8FC0028F9D178
:100870002021334805F0FAF82D4805F0BDFA31483B
:1008800006F01EF801462F4805F0F0F8284805F05C
:10089000B3FA2D4B2B4A1968264840F2016301F048
:1008A000A5FC20B301232B70F8BD284B31682148EB
:1008B00003EB41214FF4007201F0B8FEB0F5007F68
:1008C000234821D103F0D0FC3B681E2B98BF5C1C51
:1008D0003460AAE71F4A204813781A2143F0040322
:1008E000137005F0C3F8124805F086FAFEE7194ABE
:1008F0001A481378192143F00203137005F0B6F873
:100900000B4805F079FAFEE7124A154913780848B2
:1009100043F008031370FFF7EBFEFEE7B410FF1F70
:10092000B810FF1F5807FF1F3407FF1F506E00004D
:100930009C07FF1F5080FF1FD86D00007007FF1F2E
:10094000F86D00004007FF1F7C80FF1FC03BFF1FAA
:100950006407FF1FC87BFF1F746E00001C6E000041
:10096000386E00006B4A2DE9F84F1468136843F0A5
:10097000A04304F08074136013686648DD01FBD562
:100980000368654D23F00053002203602A6003686A
:1009900007461546614B62485E4E134410441B01E6
:1009A0008000DD609D605D601D6005603B68013218
:1009B00003F07F03D2B201339A424FF00000E9D333
:1009C000584A594D594B286010601A681A603368AC
:1009D000002944D1DFF85CA1DFF83C91544F0D466B
:1009E0004FF000684FF0010B1BE0336803F07F030A
:1009F0000133B1EB930F2CBF4FF08C634FF080634A
:100A000013603B6813F4803318BF4FF080430360DA
:100A10003368013503F07F03EDB201339D4229466F
:100A20002DD233683E483D4A03F07F03013328440A
:100A30002A44B1EB530F4FEA80004FEA0212D4D39D
:100A4000C2F8008033689A0053D41F2D0BFA05F2C8
:100A500056D8D9F800301343C9F80030D8E743F02E
:100A600000533360356815F0005514D0FFF710FEC1
:100A7000336803F07F030133984205460CD3002C02
:100A80003CD1244A136823F0805313601368DB01C0
:100A9000FCD4BDE8F88F33681E4F264EDFF878800F
:100AA00011E001231F2D03FA05F31AD8D8F800200E
:100AB0001343C8F800303B68013503F07F03EDB203
:100AC00001339D42DBD2154B2B441B014FF00062DA
:100AD0001A603B689900E4D5FFF7DAFDA842EAD82E
:100AE000DFE732680123A5F120018B401343336017
:100AF000E1E7FFF7CDFDA8428AD8A6E7BDE8F88F69
:100B0000DAF80020A5F120030BFA03F31343CAF827
:100B100000307DE700400A4028400A4008A4000455
:100B20002092021010400A4048400A4030400A40DB
:100B300034400A4024400A40F8B542F2C8610546F4
:100B400042F2D1635E2001226850424CEA5423787D
:100B5000414A4248424F434E434943F08003237089
:100B60001368424C43F0100313600368404AC4F812
:100B7000B82123F400534FF4007203603A603260EE
:100B80000B6823F000430B600B6843F0A0430B603D
:100B90000A68354BD601FBD530490A6842F0080295
:100BA0000A601A6842F080421A601A4611682E4B99
:100BB000CC02FBD41A6842F000721A601A689001E5
:100BC000FCD4294A1368284CD901FBD52368294A4B
:100BD00043F400332360236843F4803323602368A5
:100BE00043F480532360236843F400532360236855
:100BF00043F480032360236843F4002323602368C5
:100C000023F408432360136843F4E023136023684C
:100C100043F400132360236843F0806323600021C2
:100C20002846FFF79FFE236823F080532360236844
:100C3000DB01FCD442F2C8630121EA5853099B004E
:100C400003F1604303F5614302F01F0201FA02F26F
:100C50001A60F8BD005006403080044004400A404D
:100C600060D0044064D0044000400A400002FF1FEE
:100C70009104000034400A4008B54A4C4A484B49A8
:100C80004B4A2378002BFCD00378DE07F9D50B689C
:100C900015685B1B0E2BF4D9464C002304F58C65BC
:100CA000284684F86C3402F08FFD28B9424A137844
:100CB00043F001031370FEE704F23C40256001F0AD
:100CC00087FA0121204602F043FA0146002863D04A
:100CD000384C04F23C452846214601F0E3FA00284E
:100CE000E4D094F83C3413F0700FDFD0334B344928
:100CF00034481D60FFF7FCFC3348FFF71DFF00225E
:100D000032493148FFF7CEFB314B1A6842F0A0421E
:100D10001A601A682E4CD501FBD52B4D2668284643
:100D20000021FFF71FFE2B4B1A681A60236823F07F
:100D30007F032360236843F00F032360B40003D5CF
:100D400001212846FFF70EFE214B1A6822F080523F
:100D50001A601A681E4CD001FBD401211A48FFF713
:100D600001FE236899000BD51B4B1A68920607D425
:100D70001A6822F0FF021A601A6842F020021A6014
:100D800042F2C463154A16490E48EA50FFF7B0FC18
:100D9000144803F091F8FEE7204602F0D9F9002844
:100DA00096D183E74482FF1F5C82FF1F6081FF1F93
:100DB000B084FF1FD07BFF1FC87BFF1F7C80FF1FFD
:100DC000B46E00009C07FF1FDC14FF1F40420F00A1
:100DD00000400A4030400A4028400A4049100000C4
:100DE000906E0000390600001F2938B50D461446E4
:100DF00033D91C49A5F120000A680123834013431D
:100E00000B60194BE2792B441B014FF00061196014
:100E1000BAB1217A2268002922F060425A6014BFD8
:100E20004FF4E0014FF4C001E06800BA9860206917
:100E300000BAD860E27A41EA024242F040621A60A7
:100E400038BD2168207A094A89040A4000285A607E
:100E50000CBF00214FF48011E6E70846FFF73EFC87
:100E6000CFE700BF2C400A4008A400040000FC1F8C
:100E70002DE9F04100F5D8540A340F466688BA6867
:100E8000FB684FF01A0C86B0864606F00F0608681D
:100E900049680CFB06466D460FC54FF000083869DF
:100EA000796986F81680638803F00F0303C50CFB8D
:100EB00003431822DA756D4666880FCD06F00F06DB
:100EC0000CFB0646B061F16103CD41F60A35326292
:100ED0007362B062F16262883EF805309BB292B2F2
:100EE00083F010039A420FD06388013303F01F038D
:100EF0006380A3889BB20F2B03D8A38801339BB2D6
:100F0000A38006B0BDE8F0813EF80530013303F060
:100F10001F032EF80530E7E7F0B58B7D474C0546FB
:100F200087B00E462068002B38D110F0005062D1F7
:100F300023680146424B0B441B011B68C3F3036348
:100F4000082B24D03D4A04E02368C3F30363082B35
:100F50001DD013683A4C481C03F07F03C1B2013323
:100F60000C4499424FEA0414EED30FCE6C460FC4E2
:100F700096E80300FF2384E80300284669468DF8BD
:100F80001430FFF775FF4FF0FF3007B0F0BD284673
:100F90003246FFF729FF012007B0F0BD10F00050E6
:100FA00033D12368264B03441B0104461A68110100
:100FB00014D4224902E01A6812010FD40A68204BA7
:100FC000013002F07F02C0B20132034490424FEA86
:100FD00003130446EFD31B4B4FF0FF341B68C3F3DE
:100FE0000363082B1AD128463246E1B2FFF7FCFE14
:100FF000012007B0F0BDFFF74BFB236803F07F0330
:1010000001338342014695D8AFE7FFF741FB2368E0
:1010100003F07F0301338342C4D8DCE70FCE6F4671
:101020000FC796E8030087E80300284669468DF855
:101030001440FFF71DFF4FF0FF30A6E700400A40C5
:1010400008A4000470400A402DE9F047CD4E3578E1
:1010500086B00446002D00F08580012D35D0236830
:10106000C3F30462C3F30741082908BF0A2A0CBF6F
:1010700001220022C3F38913217A0A4222D0102BC5
:1010800020D1002301221421BF4EC0480193212505
:1010900002930393049305938DF80B208DF807209A
:1010A00000968DF80C5004F0E1FCB94804F0A4FE61
:1010B0002046FFF72FFB6846FFF72CFB6946B54833
:1010C000FFF72AFF06B0BDE8F0870268C2F30741C8
:1010D000C2F30463082908BF0A2B04D1C2F38913A1
:1010E000002B00F01381AC4DE679AB79607AA188D2
:1010F0002A6066F3000360F38203AB715B07A9808B
:1011000000F11A81A979207AA44A234660F34101AB
:1011100013F80B0FE871A97104F1130013F8011F04
:1011200002F8011F9842F9D195E80F009C4FDFF8B3
:1011300098823E6808EB06151E2E85E80F0000F227
:1011400008812368C3F30462C3F30741082908BF79
:101150000A2A06F101063E600CBF01220022C3F3F9
:10116000891389E70368C3F30462C3F307410829BD
:1011700008BF0A2AC3F389130CBF01220022012BE6
:101180007FF47AAF002A3FF477AF90F80CE0DFF8F5
:101190003CC2844F844A0EF5FA6E8CFB0E9887FB96
:1011A0000E174FEAEE71C1EB6717C1EBA8018CFB7C
:1011B000078A8CFB01C901EB810CAEEB4C0E4FEAA8
:1011C000E7784FEAE17CC8EBAA08CCEBA90C08EB66
:1011D00088080CEB8C0CA7EB4807A1EB4C013037CF
:1011E0000EF1300E4FF0320C3031577082F800C0E3
:1011F000917082F803E090F80DE003F1CC33A3FB8B
:101200000E71C908CFB2A3FB078C4FEADC0C0CEBC4
:101210008C0C01EB8101AEEB4101A7EB4C073037A1
:1012200030315771917190F80EE0A3FB0E71C9082F
:10123000CFB2A3FB078C4FEADC0C0CEB8C0C01EB60
:101240008101AEEB4101A7EB4C073037303117720B
:10125000517290F80FE0A3FB0E71C908CFB2A3FB47
:10126000078C4FEADC0C0CEB8C0C01EB8101AEEB34
:101270004101A7EB4C0730373031D772117390F82A
:1012800010E0A3FB0E71C908CFB2A3FB078C4FEA95
:10129000DC0C0CEB8C0C01EB8101AEEB4101A7EBFC
:1012A0004C07303730319773D173417CA3FB017108
:1012B000C908A3FB01E7FF0807EB8707A1EB47017C
:1012C00030315174417CA3FB0173DB0803EB8303D2
:1012D000A1EB430330339374FFF71CFA334802F059
:1012E000C3FF23682E4A32481560C3F30747C3F390
:1012F0000462082F08BF0A2A4FF001010CBF012227
:101300000022C3F3891305603170B5E6FFF702FAD6
:10131000284802F0A9FF2368C3F30462C3F307401F
:10132000082808BF0A2A4FF000010CBF0122002242
:10133000C3F3891331709FE61F4A204813781321A5
:1013400043F02003137004F091FB114804F054FDA6
:10135000D8E600211A4802F061FF0546002837D080
:10136000134E154D32682B781648013243F01003A6
:10137000112132602B7004F079FB054804F03CFD2C
:101380006DE600BFC07BFF1F0004080A046F000069
:101390009C07FF1FDC14FF1FB03BFF1FB73BFF1F65
:1013A000CC7BFF1F1F85EB514007FF1F7007FF1FFE
:1013B000D812FF1F3407FF1F7480FF1FDC6E000070
:1013C0006407FF1FF06E0000DC12FF1F6766666691
:1013D000114E124B3068414603EB40204FF400722F
:1013E00003F030F90E4802F03FFF33681E2B98BF20
:1013F0005D1C23683560C3F30462C3F3074008280B
:1014000008BF0A2A4FF000010CBF01220022C3F3DB
:101410008913396030E600BF7880FF1FC03BFF1F93
:101420005807FF1F0B78632B70B5044615460FD085
:1014300000EB830342F2C4529B580BB128469847F5
:1014400042F2C463E3584BB12846BDE870401847E8
:1014500042F2C453C358002BF0D1F1E770BD00BF76
:101460002DE9F04100F517538EB01A7805460AB9F8
:1014700001221A702B899BB2002B56D142F2C8630D
:101480000122EB587C4903F01F005B0905F5D85693
:10149000824041F823200A36B3889BB241F60A38CD
:1014A0004BB335F808301A2403F00F0304FB036430
:1014B000123408AF54F8060F6168A268E3680FC7DA
:1014C0002069616903C70DF1200EBEE80F0002AF6D
:1014D0003C460FC49EE8030084E803009DF91C20ED
:1014E000531C5ED0654B13441B011B68C3F303639D
:1014F000082B00F0928042F2C8630121EA58530998
:101500009B0003F1604303F5614302F01F0201FAFF
:1015100002F21A602B89B0889BB280B21B0380B2A2
:10152000002118430EB0BDE8F0812A461A2432F893
:10153000043FAF88DBB204FB032404F5817408AEDA
:1015400054F8060F6168A268E3680137C7F308071B
:101550000FC620696169AF802A8902AF0023082481
:1015600092B2BB6003C602937B60FB603B617B6110
:101570008DF813401AB12B89013B9BB22B8108AC2B
:101580000FCC3E460FC694E8030086E803000EA980
:101590009DF81C3001F8313D3A462846FFF742FFDE
:1015A0006CE7DFF8E880D8F8004014F0005457D119
:1015B000D8F80030DFF8D48008E0D8F800300134E3
:1015C00003F07F03E4B201339C4294D22B4B2344BB
:1015D0001B011B68C3F30363082BEED10A212848C3
:1015E00004F044FA9DF91C10264804F055FC2548E7
:1015F00004F002FC3A4621462846FFF7F5FB338803
:10160000013303F01F033380B3889BB2002BD4D087
:10161000B388013B9BB2B380CFE709211A4804F09D
:1016200025FA9DF91C10174804F036FC154804F003
:10163000E3FB3A469DF81C102846FFF7D5FB35F82A
:101640000830013303F01F0325F80830B3889BB23C
:10165000002B3FF450AFB388013B9BB2B3804AE705
:10166000FFF716F8D8F8003003F07F030133834208
:1016700004469FD83FE700BF80E100E008A40004D3
:101680001C6F00009C07FF1F286F000000400A40ED
:1016900008B50248FFF7E4FEFBE700BFDC14FF1FBC
:1016A000F0B500F5175387B01B780E46002B44D0D9
:1016B000B0F806E0B268F36804461A27086849687B
:1016C0005FFA8EFE07FB0E4E6D460FC50023306994
:1016D00071698EF80A31E388DBB203C507FB034367
:1016E000182283F80B216D46E6880FCDF6B207FB72
:1016F0000646C6F80C01C6F8101103CDC6F8142131
:10170000C6F81831C6F81C01C6F82011E288A38873
:101710009BB292B283F480739A4217D0E38801336C
:10172000C3F30803E38023899BB2FF2B03D82389EB
:1017300001339BB2238107B0F0BD0A4606A9337D71
:1017400001F8183DFFF76EFE07B0F0BDA388013326
:10175000C3F30803A380E1E701EB4101C90030B402
:1017600000F5FE5463186058C0002AD56058400F39
:10177000012829D06058400F022839D06058400F06
:10178000052802D0002030BC70476058C0F3C2105A
:10179000C0B158695C68596910402140884210D036
:1017A00001211C680131C4F3C214C9B20134A14241
:1017B000E8D25C6953F821505869144028408442AB
:1017C000EFD1012030BC70476158C1F3C211C1B1E3
:1017D00059688A42F6D01968C4B2C1F3C2118C426A
:1017E00004F10100CED253F820109142F3D1E8E782
:1017F00059688A42C6D3986882428CBF0020012073
:10180000E0E70846DEE700BF42F2C153C35C002BAD
:1018100000F0AA802DE9F04F0F460E4605460FCF87
:1018200089B002AC0FC497E8030084E80300974B2B
:101830001B689B0054D5964B1B68C3F3036A4FEAA1
:10184000CA0A0AF1080A00244FF0630B0CE0196879
:10185000490F022900F095801968490F052900F009
:10186000AD80013454453BD096F91430632B5FFAB8
:1018700084FE35D004EB440805EBC80909F5E653AE
:10188000196811F0604FECD01968490F0129DED1B9
:101890001A68F179C2F300429142E2D11A6812F457
:1018A000607FDED01F464FEA4808002306E03A6812
:1018B0005FFA89F3C2F3C2129342D2D203F1010953
:1018C00008EB090303F5E663029A55F823309A42C0
:1018D000EDD102A928468DF81CB0FFF7E1FEE6E73E
:1018E00000236A4F8DF80E303C6814F000543CD150
:1018F0003B68DFF8988108E0D8F80030013403F045
:101900007F03E4B201339C4238D296F91430A342EB
:10191000F2D004EB440105EBC10202F5FE53186856
:1019200010F0604FE8D01868F779C0F3C0608742C4
:10193000E2D11868400F012874D01968490F0229B4
:1019400000F094801B685B0F052BD5D1029A2146CD
:101950002846FFF701FF0028CED002A928468DF8BF
:101960001C40FFF79DFEC7E77047FEF791FE3B68FE
:1019700003F07F03013398420446BAD309B0BDE8AF
:10198000F08F1B68F279C3F300439A427FF469AF8A
:1019900009F5E6530433029A1B689A42FFF461AFDB
:1019A00009F5E659D9F808309A423FF65AAF02A92C
:1019B00028468DF81CB0FFF773FE52E71B6813F43E
:1019C000607F3FF44EAF09F5E6534FEA4808143301
:1019D00001270AE009F5E65101370968C1F3C21190
:1019E000FFB201318F42BFF43CAF08EB070101F5B4
:1019F000E6611868029A55F821C0196810400CEA8F
:101A000001018842E6D102A9284601938DF80EE033
:101A1000CDF800E08DF81CB0FFF742FE019BDDF829
:101A200000E0D7E71A6812F4607F3FF465AF1F4605
:101A30004FEA410A002307E03A685FFA89F3C2F3EC
:101A4000C2129342BFF458AF03F101090AEB090334
:101A500003F5FE63029A55F823309A42ECD102A9AD
:101A600028468DF81C40FFF71BFEE5E702F5FE5304
:101A7000043302991B689942FFF43EAF02F5FE520F
:101A8000936899427FF669AF36E700BF00400A408D
:101A900034400A402DE9F04F9BB0002308257D4CCF
:101AA0007D497E4A0A9308938DF82B5009930B9336
:101AB0000C930D93D4F80080D1F800A013681D0496
:101AC000814603D413689C0000F1F080DFF8CCB1AC
:101AD0004AF00105DBF80040B5FA85F5C5F12005AF
:101AE00014F00054EDB240F0A580DBF80030CDF8E2
:101AF00000A009F51B53113309F5D852049302F1E4
:101B00000A030593CDF80C9015E0062B00F0A98090
:101B1000042B00F0A681082B00F06B815F4B1B6843
:101B2000013403F07F03E4B201339C4280F08F80E4
:101B3000A54200F08C8028FA04F606F0010200238A
:101B40001343EBD0009B23FA04F909F001020023B0
:101B50001343E3D0524B23444FEA031BDBF800202E
:101B6000C2F30363022BD0D102F40013002BDBF885
:101B7000041014BF012000208DF8270021F06041DF
:101B800040F08280890C0891C2F303418DF82B103C
:101B900004998DF8344009788DF83510DBF8081079
:101BA0008DF82F10DBF80810ADF824200A0A8DF804
:101BB0002E20DBF80820120C8DF82D20DBF80820F1
:101BC000120E8DF82C20DBF80C208DF83320DBF87A
:101BD0000C20120A8DF83220DBF80C20120C8DF844
:101BE0003120DBF80C20002B4FEA12638DF83030E7
:101BF0000CBF4FF080624FF08C622A4BCBF8002074
:101C000020461B68FEF76AFD089A03982146FFF7F5
:101C1000A3FD002840F0E88008A90398FFF7F4FD31
:101C200008A8AFF3008008A8AFF3008008A8AFF3BE
:101C3000008073E7FEF72CFDDBF8003003F07F0334
:101C400001338342044602D985423FF650AF164B1A
:101C500019681A680A431A60BFF34F8F1BB0BDE8BA
:101C6000F08F02F40013002BDBF8041014BF0120E6
:101C700000208DF8270021F0604108D1890C0891DF
:101C800001218DF829107FE7089101237CE7089155
:101C90000123F5E728400A4030400A4000400A404E
:101CA00008A4000408400A4020400A4018F0200F11
:101CB0003FF40CAF1AF0200F3FF408AFA94BAA4A2B
:101CC0001B68ADF82430C3F303418DF82B10126864
:101CD000A64903F40010002814BF0020122022F0AF
:101CE000604222FA00F24FEAD35008928DF82600A3
:101CF0000A688DF82F2008689D4A4FEA10208DF859
:101D00002E0008684FEA10408DF82D0008684FEA51
:101D100010608DF82C0010688DF8330010684FEAC1
:101D200010208DF8320010684FEA10408DF8310015
:101D3000126842F2D1604FEA126219F800008DF881
:101D400030204FF063028DF834208DF8350014BF39
:101D500001220022C3F3005305208DF8283051F8EA
:101D6000803C8DF82720FEF7B9FC1AF0400F40F0B8
:101D7000DB801AF0800F40F0D38008A94846FFF7B7
:101D800043FD08A8AFF3008008A8AFF3008008A8BF
:101D9000AFF3008009F5E6531B68D90040F1868057
:101DA000744BDDF820E01B68C3F30363DB00CDE96F
:101DB000006708334FF0000C9B460CEB4C0109EB1D
:101DC000C10202F5E65003685B0F012B56D0036891
:101DD0005B0F022B6FD003685B0F052B77D00CF1E4
:101DE000010CDC45E9D171E608A90398FFF758FC1E
:101DF00012E705998B889BB2002B00F099800B8825
:101E00004FF01A0E03F00F030EFB031E0EF1120E1D
:101E10000DF1500C5EF8060FDEF80410DEF8082015
:101E2000DEF80C30ACE80F00DEF81000DEF814101D
:101E3000ACE803000DF1500CBCE80F000DF1380BBD
:101E4000DE46AEE80F009CE803008EE803009DF933
:101E50004C305A1C70D09C427FF460AE5A46E1B2BE
:101E60006CE005998B889BB2002BC8D12046FEF709
:101E700035FC4FF00063CBF800304FE6046814F4F3
:101E8000607FACD002460432126872450ED04D001D
:101E90000268DCB2631CC2F3C212E918944201F575
:101EA000E6619CD259F821209645F1D108A948460F
:101EB000FFF7F6FB0AE602F5E65304331B689E457E
:101EC0008DD302F5E65293689E4588D8EEE7036805
:101ED00013F4607F83D002F5E654224604321434B2
:101EE0002368126825680EEA03032A409A42DDD06F
:101EF0004900012302680133C2F3C212DBB201328E
:101F0000CD18934205F5E665BFF469AF266859F828
:101F1000257022680EEA06053A409542EAD1C5E7E7
:101F20000720FEF7DBFB28E70620FEF7D7FB20E7BC
:101F30002046FEF7D3FBF1E55A4621460398FEF70B
:101F400053FF05990B88013303F01F030B808B8827
:101F50009BB2002B3FF4E2AD8B88013B9BB28B80A0
:101F6000DCE500BF80400A4084400A4088400A40C7
:101F70008C400A4034400A403049314A3148324BA3
:101F8000F0B541F60C3541F60A3E0A6041F60E37CF
:101F90000021918002F51756D180118122F80E1090
:101FA000515342F2C155D15342F2C8673170515575
:101FB00042F2CC6642F2D065244CD151244F91516B
:101FC0005155244E244D17604FF47A72E17184F814
:101FD0003C1484F83D14C4F86064056001744174D5
:101FE00001710173826003F50075082403F1080292
:101FF00019609980DC7199601033AB4251604FF0E9
:1020000008004FF00002F1D11449154B0A600C187A
:102010008A80C8718A60626003F5804503F50074A8
:102020001A609A80D8719A6003F108011033A342B4
:102030004A60F5D1AB42F1D1F0BD00BFC47BFF1FB8
:10204000DC14FF1F4080FF1FDC12FF1FD07BFF1F2F
:10205000306D00003C6F00000C6D0000B03BFF1FB6
:10206000C03BFF1F38B504460D462422002104F072
:10207000B3FBA560EB79102B08D0202B04D14023B3
:1020800001202370A07038BD002038BD202301201E
:102090002370A07038BD00BF2DE9F041037803F034
:1020A00020032BB903F0FF044269214B9A4204D963
:1020B0004FF000084046BDE8F0818378016905468D
:1020C00043F004038068AB7005F1100200F0DCFF00
:1020D00080460028ECD02969A86800F061FF064618
:1020E000A86831462430052200F022FF0746002868
:1020F000DED04FF40072214604F06EFBAB681A7913
:10210000012A10D9012403E0AB681A79A2420AD946
:1021100018680368A1199B683A4698470134E4B2ED
:102120000028F1D1C4E76B6903EB42226A61C1E781
:10213000FFFD1F0010B5044680680A462430A169DF
:1021400000F0F6FE20B1A38803F00F0300EB43106C
:1021500010BD00BF38B583785A0704461DD501214C
:10216000FFF7E8FF0546F0B10378E52B1BD0237895
:10217000164A1B0744BFE369C361236A126843839D
:102180001B0C83822AB100F11601183090472B8B6B
:102190006B82A37823F00403A370A56805F12400E3
:1021A00000F0F6FE28B9637843F001036370002065
:1021B00038BD05F50C7000F0EBFE0028F3D0286860
:1021C00003685B6898470028EDD0F1E78080FF1F27
:1021D00010B5037804461BB900232370012010BDFD
:1021E000FFF7B8FF0023237010BD00BF2DE9F041B9
:1021F000064692B03578019200208DF824008DF8C3
:102200002500002D39D10C46002936D098460B7890
:1022100013F0700F31D013782F2B104622D00027E7
:1022200002E00198377009AC01AA03A900F0F4FAA2
:1022300003AA2146002300B3019D2D78304605B343
:1022400000F06CFC354609ACB8B10FCD0FC40FCD12
:102250000FC433782A682260002BE2D03046FFF7A3
:1022600079FFDEE70130019003782F2BFAD0A3B17C
:10227000A16809A8FFF7F6FE60B9002012B0BDE81A
:10228000F081434603AA2146304600F047FC12B0D5
:10229000BDE8F081019809ACC1E7A1683046FFF7BD
:1022A000E1FEEBE703780BB100207047FFF7DABEE1
:1022B0002DE9F04F0F46017883B0054611B18378C0
:1022C000DC0708D46B784FF0FF3043F002036B70EB
:1022D00003B0BDE8F08F0B07914600F187808806B8
:1022E00008D5AA686B691289C3EB42139BB2994562
:1022F00028BF9946B9F1000F00F097806B698A06F4
:102300004E464FF0000805F1100AC3F3080B3FD505
:10231000AA68116A01EB5321BBF1000F52D1B6F547
:10232000007F4FD3D36A99424CD0B6F5806F66D305
:10233000287880064FEA562B06D41079C8EB0000A7
:10234000C0B2834528BF834699424FEA4B240BD342
:102350005B44994208D202F12400019100F018FE7A
:102360000028AFD0AA680199106802685B46D2F8CD
:102370000CB03A46D8470028A4D06B69361B2344DA
:1023800027446B6151D029788A06C3F3080BBFD468
:10239000A86890F8058008EA5328BBF1000F2CD1FB
:1023A000B8F1000F29D1002B34D14C064CBF016A83
:1023B000296A296100F0F4FDAA6808EB0001BBF16D
:1023C000000FACD002F12400002200F0B1FD002883
:1023D0003FF478AFCBF50074B44228BF344600EB2D
:1023E0000B012246384602F02DF9C6E7EB696A690F
:1023F0009B1A994528BF99467CE72969DAE7106856
:1024000003683A461B68984700283FF45BAF4FF4D7
:102410000074B2E75246296900F0C8FD0028FFF6B3
:1024200051AF08D0A8682969C4E70026C6EB0900A7
:1024300003B0BDE8F08F2B7813F0700FF6D141E7B1
:1024400070B582B001220DF10701044646690569A5
:10245000FFF72EFF012805BF9DF8070066614FF0CA
:10246000FF30256102B070BD30B54369C3F3431539
:1024700083B0044605B189B901220DF10701204658
:10248000FFF716FF40B201280BD163691F33636168
:10249000A068303000EB451003B030BD20334361FD
:1024A000F6E7002003B030BD2DE9F041037807695D
:1024B000044693B142698A420E4636D021B9216161
:1024C00066610120BDE8F08118070AD499060BD592
:1024D000A3681B89B6EB431FF2D927610020BDE832
:1024E000F081E1698E42F8D8D4F808E09EF80650F1
:1024F000511E05F10900751EC140C540A94200D812
:10250000B2B95B064CBFDEF82030236A236104F1C8
:1025100010084246002DD3D02169A06800F046FD86
:10252000002805F1FF35F4DCD7E70120BDE8F08194
:102530006D1AECE72DE9F0410E46154600212422E4
:10254000044698469DF8187004F046F9B068336A5E
:10255000E36005F00F02520100F130011144A06068
:10256000A580CB7A1B0714D4831893F83B3003F073
:1025700017032370C97AE77011F0180F04BF43F0F6
:102580000803237008F00303012B06D0022B33D07D
:102590006BB300202070BDE8F0810223A370217886
:1025A00011F0110FF5D15DB208F4806618F4005FE8
:1025B00008F0080345EA03030CBF00276FF07F070C
:1025C0003B43DBB2A3700244C16AA161B2F844503C
:1025D000B2F84A1041EA05418EB1D9B943F004037B
:1025E000A37018F4804F0ED10120BDE8F08118F4DB
:1025F0008066CED10125D9E70323A370CFE72162FE
:10260000D36CE361EDE7E1692046FFF74DFF002859
:10261000EAD1BEE700F07AFD0028BAD0A378DDE762
:1026200003780BB1FFF796BD012070472DE9F84FF5
:1026300003781E0704466FD583789D076CD51B076A
:102640000F46904600F1CB806369DA43904563D82A
:10265000B8F1000F00F0B68046464FF0000933E0B5
:10266000002940F08380216A002900F08A802161DE
:1026700000F096FC0146B6F5007F55D3B6F5806FA5
:1026800066D3A2681379D06A5B1BDBB2750AAB42D2
:1026900028BF2B4681424FEA432508D31844814284
:1026A00005D282F824904FF0FF30D062A268106803
:1026B0000268D2F810A03A46D04768B36369761B27
:1026C0002B442F4463617DD0A0682169457915EAC8
:1026D0005325C3F3080A34D1BAF1000FC0D000F07B
:1026E0005FFC0146CAF50075B54228BF3546012298
:1026F000A068243000F01CFC70B150442A463946D2
:10270000AA4401F09FFFBAF5007FD7D1A06824301A
:1027100000F03EFC0028D1D1637843F001036370E0
:102720004FF0FF30BDE8F88F6369E269B6F5007FCE
:10273000354628BF4FF40075934234BF012205226D
:10274000D6E700F02DFC2918BAF1000F93D0C9E7A5
:10275000A368DA6A914222D0186803683A469B68F7
:1027600098470028D8D04FF40075A7E704F1100B64
:102770005A4600F01BFC0028CEDB17D02169A06868
:1027800076E7A37843F00403A37004F1100200F08D
:102790007BFC0028C0D021692162A06868E783F82B
:1027A00024904FF0FF32DA62A368D5E7A37821695D
:1027B000A06843F004035A46A37000F065FC0028AB
:1027C000DCD1A9E7E2699A4210D2A278E36142F033
:1027D0000403A3701A0612D44046BDE8F88FE169DD
:1027E000FFF762FE00287FF42FAF95E7094B1B68C7
:1027F00073B1A37843F004031A06A370ECD52378D1
:10280000002BE9D02046FFF7A5FC0028E4D183E7A0
:10281000A378DFE78080FF1F2DE9F04F0378202B9E
:1028200003D110F8013F202BFBD088600378002BE8
:1028300000F007812F2B2FD05C2B22D0A3F1220494
:10284000E4B21D2C20D9DFF818E2461C00247C2BB2
:10285000A3F12005374614D05E2D12D816F8013B9F
:10286000A3F12205EDB20134002B00F0D3802F2B11
:1028700013D05C2B2EFA05F703D01D2DE7D8FF07E8
:10288000E5D50020BDE8F08F754D25FA04F4E40786
:10289000D9D50020BDE8F08F002407193E46254613
:1028A0002F2302E016F8013F0135202BFAD02F2B01
:1028B000F8D0054415604CB13A4612F8013D2E2B74
:1028C00002D0202B40F0A980013CF6D14FF0FF351B
:1028D00023464B6001F1170601F10C03202203F897
:1028E000012FB342FBD1461E002200E0013216F850
:1028F000013F2E2BFAD0202BF8D0B2FA82FC6E1CAE
:102900004FEA5C1C0CD0475D2E2F00EB050604D16E
:1029100006E016F8017D2E2F02D015F1FF35F8D212
:10292000A2424FF0000980F291804E46CA46072726
:102930004FF0080825E02E2B47D0222B0BD07C2B04
:1029400009D0A3F12A0EBEF1050F48D9A3F13A0E22
:10295000BEF1050F58D8954239D0B74229D34FF070
:10296000000C5F2306F1010E01EB060B5FFA8EF6F9
:10297000062E8BF80D3000D80E730132A24207DA12
:10298000835C202BD7D10132A2424FF0000CF7DB41
:102990004B7B202B3FF475AFBCF1000F47D01AEAF8
:1029A000090F18BF4FF0020981F800900120BDE81F
:1029B000F08F0A2F37D0954235DB2A460A270826A2
:1029C0004FF010084FF0000CD7E79542DBD10A2FEB
:1029D00029D02A460A2708264FF01008CDE72D2BCC
:1029E000B9D1A3F1210EBEF15D0FB4D89542EED05E
:1029F000B742DED3A3F1610EBEF1190F28D8203BF8
:102A0000DBB248EA0909ADE7A3F15B0EBEF1020FA4
:102A1000A1D9E6E7176007194EE7FF2C3FF731AF62
:102A2000651E234655E74B7B202B3FF42AAF0B7BDB
:102A30000B4401207E24312208705C739A73BDE838
:102A4000F08F10601C464FF0FF3542E7CA469FE703
:102A5000A3F1410EBEF1190F98BF48EA0A0A81E7B7
:102A6000010100352DE9F8430F7B0E46044601F1C4
:102A70000D054FF002084FF07E097068B16808EB51
:102A800000039BB240B1084411F8012B03EB431340
:102A9000534088429BB2F7D1032F28BF03273A1D2A
:102AA000D2B203F00F01B018013A0929D2B294BF93
:102AB0003031373197424FEA13134173F1D3F31991
:102AC000002183F80D902046FFF7EEFC01212046FF
:102AD000FFF7CAFC0B2203460146A8B193F800E0B9
:102AE0002846BEF1000F15D0DB7A1B07EED403F0A9
:102AF00041FE0028EAD108F101081FFA88F8B8F170
:102B0000640FBAD1BDE8F8836078B0FA80F040096C
:102B1000BDE8F8830120BDE8F88300BF002900F07C
:102B2000B7812DE9F04F0C7814F0700F8BB052D0B4
:102B30000478002C4FD114785768A40740F0D8804F
:102B40004FF0010A0C4690460990002120468B4622
:102B50000793FFF7A9FC08F10D03CDF818B0CDF8E5
:102B60000CB05D465E46CDF814B004936369012154
:102B70002046C3F34F19FFF777FC10B30378E52B1A
:102B800039D0002B37D0554538BF00252E2B30D0FB
:102B9000C27A0F2A3CD002F0080202F0FF0342BBC7
:102BA000002E40F077810B22049903F0E3FD00280A
:102BB000DCD198F80030DB0740F1808101230593D8
:102BC000D4E763783BB9079A960504D502F003036E
:102BD000013B012B6BD900200BB0BDE8F08F039AAD
:102BE000013AD2B29342039203D1437B069A9A42AE
:102BF00017D00026BAE7002D08BFCB4655453CBF8D
:102C00000135EDB2002BDED0E52BBFD10026ADE7BC
:102C1000002EE4D15A06A9D503F01F06437B039684
:102C20000693039B013B03EB430E03EB8E0E7745AC
:102C3000DFD9CEEB07090023089617E0D8F8086023
:102C4000D2B2A2F1410C715CBCF1190F98BF2032D5
:102C5000A1F1410C98BFD2B2BCF1190F9CBF203139
:102C6000C9B29142C5D101330D2B4DD0DAB2042A3D
:102C70000EEB03010BD90A2A14D95A1C00EB4202AD
:102C80009288994509D0FF2AD8D900266EE700EB33
:102C900043029945B2F80120F5D1002A089E18BFD9
:102CA000002663E75A1E00EB4202D288E9E7002DB6
:102CB00018BFD946554503D328E0DDB2AA4525D92A
:102CC00000212046FFF7D0FB6B1C0028F5D163786C
:102CD00023B180E7A3681B79012B17D8AA4515D922
:102CE0002046FFF7D9F91035EDB20028F2D172E78E
:102CF0007A4D07F10C04A5FB044A4FEA9A0A0AF13F
:102D0000010A5FFA8AFA1DE7089E2FE7059B33B197
:102D100041462046FFF7A6FE00283FF45CAF4FEA8D
:102D200049112046FFF7C0FB00283FF454AF0AF1D9
:102D3000FF3616F0FF066BD046F04003DBB203937C
:102D4000B1464FF0000A00212046FFF78DFB002816
:102D50003FF441AFA268039992F824304E4543F006
:102D6000010308BF8E464FF00F0518BFCE4682F80C
:102D7000243008F10C01C57280F80CA080F800E046
:102D800008F11705002311F801CF5A0842EAC313CE
:102D90005CFA83F38D42DBB2F5D10EF01F0E0EF11B
:102DA000FF3E4373D8F8083080F81AA00EEB4E02AD
:102DB0000EEB820203EB020B80F81BA000230FE056
:102DC000042B1BF8031000EB430EDDB214D90A2DBF
:102DD00059D8AEF8041001330D2B02F1010212D0C4
:102DE0009742EDD814BF4FF0FF310021042B89B278
:102DF00000EB430EDDB2EAD801330D2BAEF8011023
:102E000002F10102ECD109F1FF3919F0FF099AD161
:102E1000636900212046C3F34F19FFF725FB0546E0
:102E200000283FF4D8AE2022002103F0D5FC434611
:102E30002B4953F80D2F586868602A601A899B7ACD
:102E4000AB722A8198F800200B6802F018022A73EE
:102E5000002B37D005F10E0105F1100098472B8AA1
:102E6000E989A2686B822B83E98292F8243043F0CF
:102E7000010382F824300096079B09984A462146B0
:102E8000FFF758FBA8E6013300EB4305A980A3E751
:102E900000207047039A012A7FF49DAE451E0A3038
:102EA00015F8011F5A0842EAC31351FA83F3A842E6
:102EB000DBB2F5D1069A9A427FF48DAE079B1F05CF
:102EC000D9D588E621212822AB7308232974EB7316
:102ED0006A744FF4006142F62103C2E74FECC44E1E
:102EE0008080FF1FF8B54368816800F10C06044636
:102EF0001868036832469B68984740B123789A0760
:102F0000054607D423F0010323702846F8BD0025A9
:102F10002846F8BD6368A16818681F6903683246CF
:102F200039449B6898470028F1D02378EAE700BF2E
:102F3000F8B583688B42064614460FD00378DA074B
:102F40000F4612D4630716D506F10C05002304F0D2
:102F500003041C4334702846B760F8BD10F90C3BDD
:102F600004F003041C433470F8BDFFF7BBFF0028D6
:102F7000E8D10020F8BD73681868036806F10C05F5
:102F80001B682A46394698470028DFD1F1E700BF81
:102F90000378DB0701D401207047FFF7A3BF00BF10
:102FA000837940690239994008447047012933D92F
:102FB000C369994230D870B5C379202B16460546AF
:102FC0000C4618D0102B13D18369C1F30721194483
:102FD000022200F50C70FFF7ABFF48B1E1B230F808
:102FE0001130EA6993429ABF01203360002070BD1E
:102FF0004FF0FF3070BD8169022201EBD41100F562
:103000000C70FFF795FF0028F2D004F07F0150F814
:10301000213023F07043E4E74FF0FF30704700BFEA
:1030200001291DD938B5C369994206D8C379202B27
:1030300015460C4616D0102B01D0002038BD8369F0
:10304000C1F30721194400F50C700322FFF770FF4C
:1030500003460028F1D0E1B2012023F8115038BD19
:10306000002070478169032200F50C7001EBD41138
:10307000FFF75EFF03460028DFD004F07F01012048
:1030800043F8215038BD00BF2DE9F041C4688C429F
:1030900082B005460F4690463ABF0C4600260126F0
:1030A000EB6901349C4201AA2846214609D93EBB5E
:1030B000EC6801349C424FF0010601AA28462146E3
:1030C000F5D8A7421CD0FFF771FF002818DBE7D026
:1030D000019B002BE4D106B1EC606FF070422146F9
:1030E0002846FFF79DFF064650B117B9C8F80040C3
:1030F00007E0394628462246FFF792FF0028F5D11F
:103100000026304602B0BDE8F08100BFF0B583B0C4
:1031100002AF002347F8043D05460C460AE0FFF7DE
:103120007FFF90B1EB689C429CBF04F1FF34EC60E0
:10313000019C5EB13A4621462846FFF737FF061E3E
:1031400021464FF000022846E9DA002003B0F0BD26
:10315000F8B5044600224FF0FF330120A462C4F802
:103160003442E060E27184F8242084F83022E36283
:10317000C4F838320D46C1B1042901D90020F8BD88
:1031800004F1240630461146FFF7D2FE0028F5D0A0
:1031900000EB051393F8AE315B06EFD11B3500EB66
:1031A0000515D5F8065015B9E8E704F124063046B0
:1031B00000222946FFF7BCFE0028DFD0B0F80B3014
:1031C000B3F5007FDAD1037C022BD7D1C389002B62
:1031D000D4D0467B2671731E0021012E6371A1712C
:1031E0000ED001210A4600E019465200D2B24B1C13
:1031F0009642DBB203D0092BF6D1A171BEE7A171D3
:10320000C38A4BB31F462761C6892E44A661B0F816
:10321000113023815A0102F2FF1206EB470303EB40
:10322000622262612362B0F8133003B9036AAD1AF7
:103230001D4425FA01F140F6F4734A1C9942E261FB
:103240000CD94FF6F473994285BFC36A23621023E9
:103250002023E3710120F8BD476AD4E70C23E37112
:103260008CE700BFABB1F8B50C46064615465F18B3
:1032700001E0BC420BD033682A4621461B68304629
:103280009847013405F500750028F2D1F8BD0120FA
:10329000F8BD0120704700BFABB1F8B50C4606463B
:1032A00015465F1801E0BC420BD033682A46214620
:1032B0009B6830469847013405F500750028F2D127
:1032C000F8BD0120F8BD0120704700BF70B5037B39
:1032D000012B04460D46164606D0236820465B683F
:1032E000984798B9002070BD43688B42F5D13146AC
:1032F000204600F021FC0028F4D06368A268013366
:103300009342636024BF0023237370BD05F57F42A1
:10331000FF3222F47F7222F00302A2602946521B80
:10332000204600F07DFC0028DCD00123656023737B
:10333000DDE700BF037B012B07D0022B01D001206A
:1033400070470023037300F06BBD0023037300F08C
:10335000AFBC00BF70B5037B022B04460D4616467A
:1033600006D0236820465B68984798B9002070BD56
:1033700043688B42F5D13146204600F09BFC002883
:10338000F4D06368A26801339342636024BF0023D2
:10339000237370BD05F57F42FF3222F47F7222F065
:1033A0000302A2602946521B204600F0F1FC0028CF
:1033B000DCD0022365602373DDE700BF034B0448C4
:1033C0001B681840B0FA80F04009704730100B407D
:1033D00001000F00024B186800F00100704700BFA9
:1033E00024100B40014B1878704700BFC480FF1FAA
:1033F000034B186880F40060C0F3C020704700BF22
:1034000024100B40034B186880F48060C0F38020C8
:10341000704700BF24100B40034B04481B68184042
:10342000B0FA80F04009704730100B4002007F1165
:103430004FF47A722C4B02FB00F09842F0B44BD858
:103440002A4D0822012149000B01B5FBF3F39842F4
:10345000264C3DD2013AF6D1B4FBF1F44B081F02E1
:10346000A0423DD2214E4B00012200E02346B6FB94
:10347000F3F4A04202F1010503EB010426D2102D62
:103480002A46F3D1F0221A4E1A4C18481A494FF422
:103490007A7505FB03F3B0FBF3F33360236823F085
:1034A00008032360206820F47F2323F47F6343F420
:1034B00060233B431A4322600B681B07FCD50D4A6F
:1034C000136843F008031360F0BC70471201DAE799
:1034D000B4FBF1F4CF01C3E7044C00270121BFE79F
:1034E0000B460022CFE700BF4FA9AB000095BA0AF8
:1034F000C880FF1F2C100B4024100B40F8B5054668
:1035000001F034FA064F064604E001F02FFA801B62
:10351000B84203D8A84704460028F6D12046F8BD93
:1035200020A107002DE9F041DFF840800E4FC8F8D8
:103530000000054601F01AFA064606E001F016FA08
:10354000801BB8420AD802F0CBFCA84704460028EA
:10355000F4D1C8F800002046BDE8F0810023C8F887
:1035600000302046BDE8F08120A107008C80FF1FBD
:1035700038B504460F480D46FFF7C0FF08B10020DC
:1035800038BD0D4A0D4B15600D481C60FFF7B6FFA6
:103590000028F4D10B4A0C4B1168196019681160AE
:1035A0001A68D207EBD51B6813F4702FE7D10120FE
:1035B00038BD00BFD533000008100B400C100B4085
:1035C000BD33000030100B40AC80FF1F30B5154BF1
:1035D00085B00D461968FFF7CBFF00B3124A134BB5
:1035E000126800921968019159680291083305F137
:1035F0000F041B680393002301E051F8102C03F023
:103600000301C9000133CA400DF1100E23F003017C
:103610000F2B714404F8012DEFD10023EB7305B09B
:1036200030BD00BF9880FF1F10100B4014100B40DE
:1036300008B5074B07481968FFF79AFF30B1064BEA
:10364000186880F48070C0F3002008BD012008BD18
:103650009880FF1F00001A0D10100B40054B1868D2
:1036600010F0020005D01B6803481840B0FA80F043
:1036700040097047AC80FF1F00007F1170B500212A
:103680001548FFF775FF044640B91449144B28202C
:103690004FF4C97208701A60204670BD1148FFF7D8
:1036A00041FF70B910481149114D06680B682A682E
:1036B00023F4803342F080622A6006600B6020466B
:1036C00070BD0649064B292040F29512087000246F
:1036D0001A60204670BD00BF0000DB0C7C07FF1F96
:1036E0008880FF1F3136000034100B4028100B403B
:1036F0002C100B40F8B5044619480D46FFF7FEFEA6
:1037000038B11849184B2920EC2208701A600020A3
:10371000F8BD164F164B174ADFF878E0164E1749DA
:103720004FF0010C87F800C01860154B1560154F5D
:10373000154D164ACEF80040154837600D601A60E6
:10374000FFF7F0FE18B9FFF789FF00B1F8BD054992
:10375000054B2320F62208701A600020F8BD00BF38
:10376000313600007C07FF1F8880FF1FC480FF1FC9
:10377000AC80FF1F00100B4004100B4038100B40B2
:103780000C100B404000010002007F1111003A06AE
:10379000E533000008100B4010B4074C074A0849F5
:1037A00008480023236014680C60096811605DF804
:1037B000044B0370704700BF38100B4030100B40B3
:1037C000AC80FF1FC480FF1F2DE9F04FAE4DAF4806
:1037D000DFF83483AE4FAF4EAF49DFF830E3AF4C84
:1037E00000232B70026888F8003042F040623B7082
:1037F000337002600A6842F400320A6000F57E30DD
:1038000001F59F4104305C31CEF800300360236045
:103810000B6001F5C821A24AC36020314FF08070CF
:10382000136091B00A46086013689E4CD901FBD41E
:103830004FF4C870FFF7FCFDDFF8D4E2DFF8CCC22C
:103840009648994A994940F24343CCF80030CEF863
:1038500000304FF4886EC0F800E0136002F5C82213
:1038600028320B60C3609249924B934810606020ED
:103870004FF4003208701A60236843F0006323603D
:10388000216811F00061FBD10846FFF771FE044684
:1038900000284ED00A244FF4D5718848FFF768FEFF
:1038A00000285DD1013CF6D13378854E002B08BF4E
:1038B0004FF4401601F05AF8824C814600218248AC
:1038C000FFF756FE50B9814A40F2E31143231160DD
:1038D0002B700024204611B0BDE8F08F31467C48A3
:1038E000FFF746FE0028EED001F040F8794B754A0C
:1038F000C9EB00009842E6D82368002BDEDA764B4D
:1039000011681960136875485A0048BF01234FF0C9
:10391000000148BF3B70FFF72BFE044698B96B4A85
:1039200040F2ED112123204611602B7011B0BDE84B
:10393000F08F664A4FF4E9712023204611602B7006
:1039400011B0BDE8F08F00216548FFF711FE044675
:10395000D0B95E4A4FF4F871222311602B70B9E799
:10396000584B1B68B3F5D57F0AD0584A00244FF452
:10397000EC712523204611602B7011B0BDE8F08F4B
:10398000012333704E4E95E74E4B564E1B685649F9
:1039900056481B0C1B043360FFF718FE044630B971
:1039A0004A4A40F2F511262311602B7092E75049E4
:1039B0005048FFF70BFE044630B9444A4FF4FC71FF
:1039C000272311602B7085E731684B48FFF7D0FD46
:1039D000044630B93D4A40F2FB11242311602B709C
:1039E00078E731683848FFF7C3FD38B9374A40F205
:1039F000FF11402311602B7000246BE702213F4828
:103A0000FFF7B6FD04460028F0D03D4B3D481A684C
:103A100022F006021A601A684FF0101542F00202F6
:103A20001A60694605606FF07F40FFF763FE18B1CA
:103A30009DF80D309B076DD446F2A810DFF8CCB08E
:103A4000DFF8CCA0DFF85490174F184E144D002328
:103A5000CBF80030CAF80030C9F800303B60336062
:103A60002B60FFF7E5FC40F243434FF488610122ED
:103A7000CBF80030CAF80030C9F800103B60336062
:103A80002B6088F8002025E77C07FF1F00D8004046
:103A90009080FF1F8480FF1F3080044008D00440C6
:103AA00014D004402C100B400CD0044010D0044023
:103AB00051E400E008E100E00B007F1100001A086B
:103AC0000000304010100B4000001A378880FF1FA4
:103AD0000000022920A107009480FF1F00000902B6
:103AE00000001A039880FF1FB480FF1F000009091F
:103AF0009C80FF1F0000090A00001B0700001A0637
:103B000028100B4044100B40B080FF1F00D0044031
:103B100004D0044069460748FFF7ECFD00288BD02D
:103B20009DF8103003F00F03012B85D14CF250307B
:103B300084E700BFF1FFFF8038B52E4B1B68980566
:103B40000D4615D42C4B2D491A6822F480321A6088
:103B50000A68120C1204B2F5803F46D072B61A6899
:103B600042F400321A601A6842F480321A6062B677
:103B70002348FFF7C3FC00282ED11E4C21482B1FE1
:103B800005F5FE7522681105FCD503F140010268B8
:103B900043F8042F9942FAD1A9420B46F2D11A48B0
:103BA000FFF7ACFC78B9194A194B1168196019680C
:103BB00011601A68920705D51B6816481840B0FABC
:103BC00080F0400938BD1449144B552040F293222F
:103BD00008701A60002038BD0F49104B52204FF476
:103BE000227208701A60002038BD1A6842F4003250
:103BF0001A60BDE724100B4028100B4004100B4046
:103C0000F133000020100B401934000030100B403D
:103C1000AC80FF1F00007F117C07FF1F8880FF1F03
:103C2000B2F5803F38B508D31A491B4B54204FF4E6
:103C30002A7208701A60002038BD18480D461446D4
:103C4000FFF770FCE8B9012C04D9154A136843F456
:103C500080331360134B14491B78220442F4007222
:103C60000A6063B969021148FFF782FC30B909495B
:103C7000094B312440F2B2220C701A6038BD29463B
:103C8000F1E70449044B292040F2AB2208701A6086
:103C9000002038BD7C07FF1F8880FF1F31360000E1
:103CA00028100B409080FF1F04100B4036003A1282
:103CB000FFF7E4BC38B52B4B1B68D8050D4613D471
:103CC000294B2A491A6822F480321A600A68120CB9
:103CD0001204B2F5803F1A6842F400321A6003D031
:103CE0001A6842F480321A602148FFF707FC002866
:103CF0002ED11C4C1F482B1F05F5FE75226851055F
:103D0000FCD503F1400153F8042F02609942FAD127
:103D1000A9420B46F2D11848FFF7F0FB78B9174AD1
:103D2000174B11681960196811601A68920705D558
:103D30001B6814481840B0FA80F0400938BD124999
:103D4000124B5B2040F2FD2208701A60002038BD43
:103D50000D490E4B582040F2F22208701A600020E4
:103D600038BD00BF24100B4028100B4004100B403E
:103D70000534000020100B401934000030100B40B7
:103D8000AC80FF1F00007F117C07FF1F8880FF1F92
:103D9000B2F5803F38B508D31A491B4B59204FF470
:103DA000437208701A60002038BD18480D4614464A
:103DB000FFF7B8FBE8B9012C04D9154A136843F49E
:103DC00080331360134B14491B78220442F40072B1
:103DD0000A6063B969021148FFF7CAFB30B90949A3
:103DE000094B33244FF446720C701A6038BD2946D3
:103DF000F1E70449044B29204FF4447208701A601B
:103E0000002038BD7C07FF1F8880FF1F313600006F
:103E100028100B409080FF1F04100B4026003A1919
:103E2000FFF72CBC38B5054672B601210D2000F015
:103E300097FD002DC8BF002411DD01210D2000F0E9
:103E400089FD094900BF0139FCD10D2000F082FD38
:103E5000054B00BF013BFCD10134A542EDD1034B22
:103E600000BF013BFCD1E4E798B57500A0BA100390
:103E700008B50120FFF7D6FF08B50220FFF7D2FFF3
:103E800008B50320FFF7CEFF08B50420FFF7CAFFEF
:103E900008B5002002F082FD054A1368984205D952
:103EA0000449096888423CBF10600346184608BDB3
:103EB000CC80FF1FD080FF1F10B582B072B6154CAA
:103EC0002060FFF7E5FFADF10C03984201900AD2A4
:103ED000431EADF10D01552203F8012F8B42FBD19A
:103EE000ADF10C0301930C4B1B6883F308880B4B5B
:103EF0001B6883F30988062383F31488BFF36F8F4D
:103F000000F084FB00F0CCF9236803B19847FCF77C
:103F10007DFCFCE7D480FF1F8007FF1FD080FF1FC0
:103F2000034B044A1B68A3F5C8731360704700BFB6
:103F30008007FF1FD080FF1F2DE9F04F2DED108A65
:103F4000C1F80CD0C3689D46BDEC108ABDE8F08F67
:103F5000002383F311882846A047002000F0FCFAD4
:103F600000F026F900DFFEE7064A536823F001035C
:103F70005360EFF30983683383F30988002383F3E5
:103F80001188704730EF00E0202383F31188124B33
:103F90005B6813F4006302D183F31188704710B596
:103FA000F1EE103AEFF309840C4B4FF08072DB68AE
:103FB00044F8083C44F84C2CA4F1680383F30988C6
:103FC00000F0E2F818B1064B44F8503C10BD054B28
:103FD00044F8503C10BD00BF00ED00E030EF00E0C1
:103FE000613F0000643F0000034A044B02F180017E
:103FF00059601A60704700BFD880FF1FC482FF1F3E
:1040000010B4202383F3118890F82030072B0ED8AA
:10401000DFE803F0280D0D2408040D08426A9368B8
:104020000133936090E80C001A60026853604FF00F
:10403000FF34002281680E4B446280F820201B6808
:104040009A688A42FBD25A6842600360002110607D
:10405000586081F311885DF8044B7047436A002271
:104060001A60E4E7002383F311885DF8044B70477E
:10407000CC82FF1F034B00221B605B601B615B61F6
:104080009A607047CC82FF1F00228168084B10B4F1
:10409000044680F820201B689A688A42FBD25A683E
:1040A00062602360204614605C605DF8044B7047DA
:1040B000CC82FF1F0A4B99691A6810B481F820005E
:1040C000142081F82300106818600124436082F8EE
:1040D000204010465DF8044B9A61FFF72DBF00BFEA
:1040E000CC82FF1F30B54B1C87B012D00C4C0D4A50
:1040F000A369054601A800F043FA2846FFF7DAFF56
:10410000049B13B101A800F059FAA369586A07B0DB
:1041100030BD034CFFF7CEFFA369586A07B030BD2E
:10412000CC82FF1F01400000164B70B404469D690D
:104130004162A868A16881424FF000020CD884F85F
:1041400020201B689A689142FBD95A6862602360FC
:1041500014605C6070BC704785F820201A461268B5
:1041600091688842FBD35068686001262A60056028
:10417000556084F82060294620469C6170BCFFF79A
:10418000DBBE00BFCC82FF1F084B9A691B6892F808
:1041900023109B68906821B9834234BF002001201E
:1041A0007047834294BF002001207047CC82FF1FDC
:1041B000194830B40268816913680360586092F846
:1041C00023508261012482F820409DB98C6881F8D7
:1041D000205000E01B689A68A242FBD25A684A60ED
:1041E00014240B601160596081F82340806930BC51
:1041F000FFF7A2BE00228C6881F8202000E01B6837
:104200009A68A242FBD85A684A600B6080691160C4
:1042100030BC5960FFF790BECC82FF1F202383F390
:1042200011888268531E002B836004DB002000236A
:1042300083F31188704710B579B10A4A92695062C8
:104240004468034682E81800052022605A60FFF7A0
:1042500049FF002383F3118810BD82604FF0FF30C7
:10426000F7E700BFCC82FF1F08B5202383F3118836
:1042700083680133002B836003DD002383F31188FF
:1042800008BD0346006802681A6000215360FFF70A
:104290004BFF002383F3118808BD00BFFEE700BF7A
:1042A000F8B5194C194E1A4DFFF7E4FE00F05AF913
:1042B000FFF79AFE20468022164900F05DF8164B63
:1042C000012280F82020DF68144A44F8180C4FF6C9
:1042D000FF0139400A430024C461DA60F26842F009
:1042E0008072F2602A68102042F0010220212A60C8
:1042F000D87783F8221084F3118862B60848BDE8A5
:10430000F84000F0A3B800BFFC82FF1FF0ED00E012
:10431000001000E0506F000000ED00E00003FA051F
:10432000706F0000F8B5124DAA6992F8233013B1EE
:10433000013B82F82330AA6AEB690E4E0132B34288
:10434000AA6213D09C68013C9C607CB920271A6843
:10435000D968DC605660EA6184F31188186988477F
:1043600087F31188EB699A68002AF0D0F8BD00BF86
:10437000CC82FF1FE882FF1FF0B5104CC263656955
:1043800081610226826080F82060002200F12C0109
:104390004FF0140E012700F128064561046180F8F2
:1043A00023E080F8227080F8212082634263286134
:1043B00060618662C1620163F0BD00BFCC82FF1FF5
:1043C000836841691F4AF0B5456806690468C76893
:1043D00043F8304C142003F8250C012003F8260C78
:1043E0004FF0020E002003F828EC03F8270C43F8E6
:1043F0002C5CA3F1AC045569DFF84CE043F86C6C1D
:1044000043F8681C43F83C4CA3F14801A3F11C0499
:10441000A3F1200643F8100C43F8140C43F8407C39
:1044200043F80C7C43F84CEC43F8382C43F8345CEC
:1044300008462961516143F8206C43F81C4C43F84D
:10444000184CF0BDCC82FF1F513F000043688268CA
:10445000934210B504D2552103F8011B9A42FBD1B7
:10446000202383F31188FFF7ABFF00210446FFF7F9
:104470005BFE002383F31188204610BDF8B5461873
:10448000B04205D20546552705F8017BAE42FBD167
:10449000202484F31188483944181A4EE061776962
:1044A00044F8243C069B44F8203CA4F16401022516
:1044B0001423A260E160E26384F8205084F8233082
:1044C000002504F12C03DFF844E00F4944F804EC24
:1044D00004F12802012084F82200A16126616761AD
:1044E00084F82150A563656320463C612946A26299
:1044F000E36223637461FFF717FE85F3118820469A
:10450000F8BD00BFCC82FF1F886F0000513F000044
:1045100038B5104B9C69A36A606204F128059D427E
:1045200007D01A68A2621846FFF7AEFDA36AAB4235
:10453000F7D194F8223043B994F821309B0704D185
:10454000636922691A61226953610F20BDE838400E
:10455000FFF7B0BDCC82FF1F202383F31188FFF744
:10456000D7BF00BF054B4FF0FF3003F11C02002105
:1045700058629962DA611A62704700BFCC82FF1FED
:1045800070B40D4EF469A5680361A942C26004D9F4
:104590002468491BA5688D42FAD3636843600460B0
:1045A000186060608160A3684FF0FF32591AA16003
:1045B000726270BC704700BFCC82FF1F03688268C4
:1045C000416830B49D68064C2A449A600B600568C7
:1045D00000224FF0FF336960C260636230BC7047F5
:1045E000CC82FF1F08B5202383F31188FFF79AFEC2
:1045F000002383F31188BDE80840FFF7C5BC00BF66
:1046000010B5044601F0AEFB204610BD4EF65F2209
:104610000149024801F05CBBE54500005881FF1FDD
:1046200030B4054B054A0649802400251C711D60E5
:10463000184630BC01F0A4BD5881FF1F3007FF1F92
:1046400001460000844641EA000313F003036DD1E4
:10465000403A41D351F8043B40F8043B51F8043B45
:1046600040F8043B51F8043B40F8043B51F8043B4C
:1046700040F8043B51F8043B40F8043B51F8043B3C
:1046800040F8043B51F8043B40F8043B51F8043B2C
:1046900040F8043B51F8043B40F8043B51F8043B1C
:1046A00040F8043B51F8043B40F8043B51F8043B0C
:1046B00040F8043B51F8043B40F8043B51F8043BFC
:1046C00040F8043B51F8043B40F8043B51F8043BEC
:1046D00040F8043B403ABDD2303211D351F8043B8C
:1046E00040F8043B51F8043B40F8043B51F8043BCC
:1046F00040F8043B51F8043B40F8043B103AEDD23B
:104700000C3205D351F8043B40F8043B043AF9D28B
:10471000043208D0D2071CBF11F8013B00F8013B5E
:1047200001D30B8803806046704700BF082A13D36B
:104730008B078DD010F003038AD0C3F10403D21A83
:10474000DB071CBF11F8013B00F8013B80D331F8B7
:10475000023B20F8023B7BE7043AD9D3013A11F837
:10476000013B00F8013BF9D20B7803704B784370A2
:104770008B7883706046704708B5104C08E023685A
:1047800059050DD423681A050FD42368DB0411D40E
:1047900023685803F3D500F0EFFA23685905F1D5E3
:1047A00000F00EF823681A05EFD500F009F8236829
:1047B000DB04EDD500F004F8EAE700BF34800440E4
:1047C00008B5FFF7D9FF00BF014B10221A807047D0
:1047D00000200540704700BF094908B50B6830B19B
:1047E0006A461844A2F50052904202D20860184668
:1047F00008BD01F0D1FC0C2303604FF0FF3008BD71
:104800008407FF1F084A1378802B01D000207047CF
:104810000649074B07480860002119701378802B60
:10482000FCD00120704700BF03E0074044800440F3
:1048300001E0074000002822094A1378012B01D02B
:104840000020704703F1804303F5FC2360211970B9
:104850001378802BFCD1034B034A1A600120704768
:1048600003E00740448004400000060210B4114BEE
:1048700053F8302092F8804234B1012379B182F8A4
:1048800080305DF8044B704703EBC0035B681A6827
:1048900051B922F002021A605DF8044B704782F8A9
:1048A00000315DF8044B704742F003021A605DF876
:1048B000044B7047906F00001C4A02EBC0030129B3
:1048C0005B6811D004291BD052F83000002280F818
:1048D000802229B1022920D0032922D01A607047F2
:1048E0004FF480721A60704752F830004FF4A27291
:1048F00080F880121A601A6822F020021A6070474D
:1049000052F830104FF4A272012081F880021A6030
:104910001A6842F020021A60704740F203121A60CF
:1049200070474FF481721A60704700BF906F0000AB
:1049300030B4054B054D064C002210211A602A6048
:104940002060196030BC704714D0034004D003408D
:1049500000D003403F2801D8FFF788BF704700BF51
:104960003F2801D8FFF7A8BF704700BF72B60D49B6
:104970000D4B0E4A1B680868126862B6520102D5D8
:10498000322B88BF0130C3F52F33094903F21F339F
:104990004FF47A729B08A1FB031302FB00F000EBBB
:1049A000930070476081FF1F18E000E004ED00E015
:1049B000176CC1162DE9F843054672B6224F234BFA
:1049C000234A1B683C68126862B6520102D5322B3A
:1049D00088BF0134B5B3C3F52F3303F21F331D4E27
:1049E000DFF86890DFF868809B084FF47A72A6FBC6
:1049F000031302FB04F404EB930472B6D9F800101D
:104A00003A68D8F800E062B6C1F52F3303F21F33DD
:104A10009B08A6FB03031EF0806FC4EB93034FF4C7
:104A20007A7002D0322988BF013200FB0233B3F51D
:104A30007A7F04D3013D05D004F57A74DDE701F0F7
:104A40004FFADAE7BDE8F8836081FF1F18E000E065
:104A500004ED00E0176CC116F8B54E4B4E48DFF878
:104A60005CC14E4C4E49DFF858E14E4E4E4D4F4F13
:104A70004FF000621A604FF080521A604FF00052FF
:104A80001A604FF080421A604FF000421A60002214
:104A9000026028234EF6FF70CCF80000CEF80030FC
:104AA00023600EF5012E0B6033602B6006F50026A7
:104AB0003B6005F50025A36207F500278B6204F52E
:104AC000012401F5012106F6E87605F6E87507F5FB
:104AD0007F6710310EF1100E203433602B60CEF85A
:104AE00000303B600B602360314CBB618B6109215E
:104AF0002160A7F5002704F58054203F08343A6070
:104B00002060BB60E36047F8041C04F5FD2407F552
:104B1000FE27043704F2FC7422603860A360FB6057
:104B200044F8041C083404F6FC74C7F8FC2F206019
:104B3000A4F5E124A4F2DC7433602B60C7F8F81FFD
:104B400021681C4841F40071216001681A4C0EF57F
:104B50007F4E0EF1E80E07F5883706F5803605F52D
:104B6000803541F000710160CEF8002047F6FF71FA
:104B70000822396033602B60226001F027FA192087
:104B8000FFF718FF00F05EFE40F21310BDE8F8409A
:104B9000FFF710BF04E100E00480034014800340ED
:104BA0001C800340248003402C8003403480034059
:104BB000008003400480044000900C4008800340C3
:104BC0000C800340431E032B14D872B60A4951F8D7
:104BD000230068B170B4094C058834F81320466886
:104BE00041F82360521B24F8132062B670BC704752
:104BF00062B6704700207047BC81FF1FA084FF1F72
:104C0000013803280BD872B6074B53F8203043B154
:104C100000205B680130002BFBD162B6704700209A
:104C200070471846F9E700BF1082FF1F30B472B614
:104C30002B4A13781D0706D52A4B196A002936D04E
:104C4000996A002941D053781C0706D5254B196C69
:104C500000293ED0996C002939D09378190705D5E1
:104C6000204B196E002936D0996E89B1D3781B0775
:104C700007D51C4BD3F880207AB3D3F888201121B4
:104C80003AB162B6184B00221A7030BC00F062BE16
:104C90000D21154C154D227843F8315003EBC1031B
:104CA0000830013A5860227062B630BC7047042266
:104CB0000D4C0F4D217843F8325003EBC2030830FE
:104CC0004A1E5860227062B6EFE70521E1E709212C
:104CD000DFE70822ECE70C22EAE71022E8E700BF52
:104CE000BC7100000000FF1F3982FF1FC800400098
:104CF00088004000431E032B1DD81B4A400140F092
:104D0000100030B4104472B6184CE25C032A1BD871
:104D1000DFE802F00212151703220D88E25410F0AA
:104D2000080F14BFC823882343EA054308310360F2
:104D3000416062B630BC704708300222EDE70522C0
:104D4000EBE708300422E8E7094A52F8230038B1BB
:104D5000084A52F82300416042F8231062B6E9E79E
:104D600042F82310034AF7E70000FF1F4882FF1FA5
:104D70001082FF1F2082FF1F2DE9F04FDFF818B3CC
:104D8000DFF818A387B044E0AE4F4FEA930807EB73
:104D9000C809013ED9F8042003F00803F6B2A2F1D5
:104DA000080003F0FF04002B40F0048157F838306E
:104DB0001B0C99B222F8081C002B00F0F280A24BC9
:104DC00022F8064C42F8044C53F82620002A00F042
:104DD0006E819E4D55F8263058609D4C45F8260052
:104DE00034F81630194424F8161000F093FD00280A
:104DF00000F05681974A984B19F0080F00F108000F
:104E000018BF1346C9F8040047F8383008238BF858
:104E100000309BF80040E4B261071BD58F4B1B7834
:104E2000ABB18F490A7802F0FF032AB1013BDBB234
:104E30000B70002B00F0EF848A490A7802F0FF0320
:104E40002AB1013BDBB20B70002B00F0F78004238A
:104E50008BF8003004F0080303F0FF02002B00F091
:104E6000D6809AF80030DBB21E098DD19C08DFF89D
:104E7000D49159F8342009EBC401C2F38302013AFA
:104E800049680C2A7ED8DFE802F081817D7D7D7D36
:104E90007D7D477D7D7D07000868734D4A68734FAF
:104EA000734E286081B240F281606A4B6A604FF0B5
:104EB000010E0022814249F834303A60C9F81020CE
:104EC000C9F8182086F800E05E4C00F2F480B1F5D5
:104ED000D06F80F07883B1F5817F00F0628300F2BB
:104EE0008782802900F0EC82822940F01E83A98805
:104EF00001F07F01042900F218835E485E4C8900AE
:104F00000844227062700278930740F1798384F834
:104F100000E04FF0020ED8E2544F3A6842B3574BCC
:104F2000534E5749188834780D784028864645F006
:104F3000020828BF4FF0400E002C84F001043470AA
:104F4000CEEB00000CBF8824C82409EBC80680B251
:104F500085F0010544EA0E447260188049F8384033
:104F600072440D7018B9BEF1400F18BF00223A60AC
:104F70003D4B1A88B2F5A06F04D100219A78597080
:104F8000404B1A70404A012313703FE7364A158898
:104F900042F22100854200F0FF812E4A49F8342078
:104FA000F0E72C4A2C4B19F0080F18BF134647F8AE
:104FB00038302BE700F0CEFC344A354952F8263021
:104FC000002B00F0B68158688C5D42F8260003F192
:104FD0000802C9F80420032C05D8DFE804F0120FFA
:104FE000150204228A551A8819F0080F0CBF88236D
:104FF000C82343EA024347F8383007E702228A55BC
:10500000F1E703228A55EEE705228A55EBE7E00730
:1050100000F11A82210600F14982A20706D51D4A35
:105020001D4913780220DBB213700870E30602D525
:10503000194B10221A7007B0BDE8F08F00F0F6FD92
:1050400005E700BF0000FF1FBC81FF1F6881FF1F35
:10505000A084FF1FC8004000880040004482FF1F5A
:10506000CD81FF1F4C82FF1F3082FF1F6481FF1F15
:10507000CC81FF1FC02007403C82FF1F7881FF1FAB
:105080003882FF1F98200740942007401082FF1F9E
:105090004882FF1F8820074080200740902007405B
:1050A000AB4A47F83800137801331370AEE643F883
:1050B0002600A84D91E642F22100814200F03581A0
:1050C00000F2AF81B1F5086F00F01B82B1F5106FEF
:1050D00040F02B82226AA049A8780870120600F1DD
:1050E0004583D9F828209D49130600F13A83D9F861
:1050F00030209A49150600F12F83D9F838209749B6
:10510000140600F12483D9F840209449100600F1D8
:105110001983D9F848209149120600F10E83D9F875
:1051200050208E49130600F10383D9F858208B498B
:10513000150600F1F882D9F860208849140600F1BC
:105140002983D9F868208549100600F11E83D9F813
:1051500070208249120600F11383D9F878207F4924
:10516000130600F10883D9F880207C49150600F168
:105170001C83D9F888207949140600F11083D9F8E6
:1051800090207649100600F1C882D9F8982073491A
:10519000120600F1BC827248724A7349019073484A
:1051A0006C4D734C04970023059602958046174674
:1051B0000E461D460394386828B1446800F0CAFBC7
:1051C0002046002CF9D100233B60029B30681A4630
:1051D000002342F8253028B1446800F0BBFB20468C
:1051E000002CF9D100223260019A98F80030114663
:1051F000002241F8042B039A0191023B4FF0000179
:1052000022F81510032B09D8DFE813F04B01040036
:105210004B0104004FF0010388F800300135042DE4
:1052200007F1040706F1040608F10108C3D1514C47
:10523000514B2278464D049F059E002129701A701B
:10524000130700F14F8262784C49DFF810810A7031
:1052500010074FF00001C9F83010C9F8381000F1FC
:105260002B824749A2780A700021C9F85010C9F86A
:1052700058101107DFF8E48000F1DC81E278414941
:10528000364C0A7000211207C9F87010C9F878105E
:1052900000F1B98133780193002183F00102C9F84C
:1052A0009010C9F898100020029080468446044669
:1052B00035490D7845F0020E09EBCE030393019BAF
:1052C000002B039B5C600CBF8824C82444EA0803BD
:1052D00085F0010449F83E3032700C70DFF87CE054
:1052E0002A4BDFF8A480002840F02681BCF1400F53
:1052F0001BD144F0020C09EBCC03029CDFF85CE00C
:105300005C60002A40F02E81020442F088029DF881
:1053100004304EF83C20044433700D70234640287E
:1053200003D100201A4A3B6010801A4A01231370EF
:1053300028E68B5D032B00F22D8101A252F823F0A9
:105340000D4E00000D4E0000975400009D540000CB
:105350003982FF1F6881FF1F4482FF1F0000FF1F6B
:105360002082FF1FBC81FF1F1082FF1F4882FF1F8A
:10537000A084FF1FBC710000C4200740C820074064
:10538000CC200740D02007403882FF1FCC81FF1F70
:105390007881FF1F94200740928892B9B14A0D7816
:1053A0004878157050708D78C8789570D0701068F6
:1053B0000D79157186284D7989795571917100F0B3
:1053C000A580A949A94E0A78307882F00105002805
:1053D00042F002020D700CBF8821C82149F832103A
:1053E00009EBC20280F00100002130705160D4E569
:1053F00040F20232914240F08D80A98801F07F0195
:10540000042900F292806A88002A40F08E80984831
:10541000CDF804E089000844017841F002010170F0
:1054200041E742F2212081427BD1A988002940F046
:10543000E480904B904A9148AC781D681560CDF897
:1054400004E00A4604702EE78D4B8E4886491A61A7
:105450004FF0020E80F800E0854F0A708A4919600B
:1054600099608A4E8A4D8B4C9A610D213970FF21CB
:105470003170DFF840E229702270874D874A8EF83C
:1054800000109F27012406F8047C5D600470DA6038
:1054900007B0BDE8F08F00238B55B7E401238B558F
:1054A000B4E44FF0000388F80030B7E67049784B59
:1054B00080220D2008701A70A2077FF5B7ADAEE507
:1054C000774C4FF0020E22706270EA88724580F0CD
:1054D000A38165490D78402A944645F0020E28BF05
:1054E0004FF0400C04EB0C0309EBCE0002930123B8
:1054F00044604FEA0C48CCEB020001930022C82420
:10550000E4E6684A664C12782270DEE7664A0F21AC
:10551000117056E7B1F5A06F07D101230022019366
:10552000C1E642F221329142F7D0514A0F23137063
:10553000544A0123137025E540287FF6DAAE44F083
:1055400002040EEBC401029E4E60BAB19DF8041035
:10555000564A19703346403888F8005040334EF8A8
:105560003420DFE69DF8043033700204029B0D7096
:1055700042F0C80203444EF83C20D0E69DF80410E7
:105580001970029B404A88F80050403840334EF86A
:105590003420C7E619F0080F0CBF022303238B55F4
:1055A00034E4A98801F07F010429BED86A88002A62
:1055B000BBD12F48CDF804E089000844017821F0E0
:1055C000020101706FE63A4A5468002CADD0688839
:1055D000B5F804E003E00C325468002CA5D0138821
:1055E0008342F8D153887345F5D1000A03280CBFD4
:1055F00094F800E0B2F808E067E7CDF804E052E67E
:105600004FF0020E61E700F085F9002800F0F1800C
:1056100008301D4AC4F88400C4F8802000F07AF9EC
:10562000002800F0E0800830204AC9F88C00C9F852
:1056300088202FE600F06EF9002800F0E6800830A0
:10564000114AC8F86400C8F8602000F063F9002827
:1056500000F0D5800830154AC9F86C00C9F86820F8
:105660000CE600BFA884FF1F3882FF1FCC81FF1FFC
:10567000C02007406081FF1FB084FF1F5C82FF1FB6
:105680000000FF1F9420074088004000882007404A
:1056900080200740982007407C81FF1FD081FF1F9A
:1056A0003C82FF1F4482FF1FCD81FF1FC8004000C6
:1056B000C07100008C20074000F02CF9002800F099
:1056C0008C8008305D4AC8F84400C8F8402000F0DB
:1056D00021F900287BD00830594AC9F84C00C9F894
:1056E0004820BEE500F016F900286AD00830534A79
:1056F000C9F82400C9F8202000F00CF900285AD07D
:1057000008304F4AC9F82C00C9F828209BE5D1F889
:105710009C00083800F01EF93DE5D1F894000838E7
:1057200000F018F931E5C86D083800F013F902E50A
:10573000486D083800F00EF9F7E4C86C083800F03E
:1057400009F9ECE4486C083800F004F9E1E4C86BAE
:10575000083800F0FFF8D6E4486B083800F0FAF893
:10576000CBE4C86A083800F0F5F8C0E4606A08388D
:1057700000F0F0F8B5E4C86F083800F0EBF8F2E498
:10578000486F083800F0E6F8E7E4C86E083800F023
:10579000E1F8DCE4486E083800F0DCF8D1E4D1F838
:1057A0008C00083800F0D6F8E9E4D1F88400083815
:1057B00000F0D0F8DDE42A78C9F8280001322A7018
:1057C00041E52A78C9F8200001322A7094E72A7846
:1057D000C9F8480001322A7043E52A78C8F8400029
:1057E00001322A7073E72A78C9F8880001322A70DA
:1057F00050E52A78C4F8800001322A700EE72A7832
:10580000C9F8680001322A7038E52A78C8F86000C3
:1058100001322A7019E700BEBEF1400FF44628BFDE
:105820004FF0400C04EB0C0302930123CCEB0E0071
:105830004FEA0C48002201933AE500BF880040007F
:10584000C80040002DE9F041274C00F055FC002233
:1058500004F1A00023461A605A60083383424FF0D7
:105860000001F8D12148224A0368DFF89CE0214E6C
:10587000214D224FDFF894C0DFF8948043F4802359
:105880000360136843F04073136003238EF8003005
:10589000A023337002F5C922C4F3072300F5283092
:1058A0002B708030C4F3074310323B70240EFF236B
:1058B0000470134D8CF80030124888F800301370D3
:1058C000012306F8AC3C4FF400140EF8441C70267B
:1058D000102107F82C3C2E70046082F8F810AEF10D
:1058E000440EBDE8F08100BF0000FF1F348004407B
:1058F00000D80040402107409C200740B0200740CE
:1059000035E400E004E100E0442107408020074046
:105910008820074072B60D480268B2FA82F30B2B5A
:1059200010DC4FF00041D94022EA0102026062B669
:10593000074803EBC303DB00C2180021C150104627
:105940005160704762B60020704700BF8807FF1F94
:10595000D003FF1F0D4B0E4AC31AA2FB03231B09E2
:105960000B2B0CD80B4A127852B972B60A484FF07A
:105970000041026821FA03F31A43026062B67047DD
:10598000064A1278002AF0D0FFF750B9D003FF1F63
:10599000398EE3383982FF1F8807FF1F4482FF1FBB
:1059A00038B50F4D286878B143880288C118013393
:1059B00093420C7A02D24380204638BDFFF7CAFFDB
:1059C000002320462B6038BD064B1B782BB10320EB
:1059D000FFF7F8F828600028E6D14FF0FF3038BD17
:1059E0005882FF1F4482FF1F10B5094C206818B170
:1059F00043881844007A10BD064B1B782BB1032056
:105A0000FFF7E0F820600028F2D14FF0FF3010BD22
:105A10005882FF1F4482FF1F044B054A1B68908871
:105A20001BB11A885B88D31A184470475882FF1F2D
:105A3000A084FF1F0B4B1B789BB110B50A4C20684C
:105A400048B1FFF787FF002303202360FFF7BAF870
:105A500030B1FFF77FFF0320FFF7B4F80028F8D13B
:105A600010BD70474482FF1F5882FF1F2DE9F04F81
:105A7000DFF8F89083B0012289F80020019169B322
:105A8000DFF8EC80354F019E8346D8F80000B0B3B4
:105A9000334D4488C4F14001B14228BF314604EB84
:105AA000010E00221FFA8EFE2A70761AA0F802E07C
:105AB00000F1080251B1013C224459441BF8014B4A
:105AC00002F8014F8B45F9D1B0F802E0BEF13F0F6B
:105AD0000BD8244A05211170002ED6D1019800233D
